:100127004E6869657420646F3A20002A4300446F63
:10013700206E6869657420646F2E2E2E004F6269E9
:0701470074207465616D0076
:10023900E4FDFCC3ED9FEC9E50070DBD00010C8051
:01024900F2C2
:01024A002291
:10019600E4FDFCC3ED9FEC9E5015E4FBFA0BBB009F
:0F01A600010AEB647D4A70F50DBD00010C80E489
:0101B5002227
:07024B0012014E7F0A7E0044
:0B025200EF1FAC0670011E4C70F6227E
:1001F200D2A47F087E00120252C2A47F417E001266
:0B0202000252D2A47F147E00020252C0
:1000FF00E4FB7D08EDD39400748094804017C2A474
:10010F00EB13FBD2A430A4034303807F047E0012C1
:07011F0002521D80DFAF0357
:0101260022B6
:02014E00AD07FB
:100150007B08EBD39400748094804016C2A4ED1306
:1001600092A47F057E00120252D2A4EDC313FD1BA0
:0201700080E02D
:01017200226A
:10008C00E4FAFF1201F27FCC12014E7F4412024BB4
:10009C001201F27FCC12014E7FBE12024B1200FFF6
:1000AC00AA071200FFEFFE7C00E42AFFEC3EC4F826
:0A00BC0054F0C8EFC4540F48F50CCF
:0100C6002217
:030226001201D6EC
:10022900D2947F037E00120239C2947F32020239CE
:1001D600EF139293EFC313139292EF1313543F133B
:0C01E6009291EF131313541F13929022F8
:10025D00AB07EBC4540FFF120226AF031201D602F7
:02026D00022964
:0C026F007F0112025D7F0A7E000202394E
:10000300E4FF1201D67F147E00120196C296C295B8
:100013007F031202267F057E001201961202297FBA
:10002300647E001202391202297F021201D61202E3
:10003300297F2812025D7F0C12025D7F0612025D8A
:050043007F0102025DD7
:1001B600ED7006EF2480FA8004EF24C0FA7FE87E13
:1001C60003120239AF0212025D7F327E000202394B
:04027B00842430FFA8
:08027F00D29612025DC2962224
:100173008B098A0A890BAB09AA0AA90B12020DFF84
:10018300601012027F7401250BF50BE4350AF50AA2
:0301930080E422E3
:1000C7008F087BFF7A017927120173E50875F064C1
:1000D70012027BE50875F06484E5F075F00A1202F8
:1000E7007BE50875F00A84E5F02430FF12027F7B78
:0800F700FF7A01793202017366
:100048001200037FC87E001201967BFF7A01793582
:100058001201737FF47E0112019612026F7D01E492
:10006800FF1201B67BFF7A017944120173E4FDFFA8
:100078001201B612008CAF0C1200C77FF47E011279
:04008800019680E974
:0300000002028772
:0C028700787FE4F6D8FD75810C02004879
:10020D00BB010689828A83E0225002E722BBFE02EF
:09021D00E32289828A83E4932222
:00000001FF
